:100000000C9434000C9446000C9446000C9446006A
:100010000C9446000C9446000C9446000C94460048
:100020000C9446000C9446000C9446000C94460038
:100030000C9446000C9435010C9446000C94460038
:100040000C9446000C9446000C9446000C94460018
:100050000C9446000C9446000C9446000C94460008
:100060000C9446000C94460011241FBECFEFD8E03C
:10007000DEBFCDBF21E0A0E0B1E001C01D92A734FA
:10008000B207E1F70E9447010C94EA030C942B019C
:100090009091C00095FFFCCF8093C6000895CF9348
:1000A000C82F80E30E94480088E70E9448008C2FF8
:1000B00082958F708A3010F490E301C097E3890F26
:1000C0000E944800CF70CA3010F480E301C087E37B
:1000D0008C0F0E94480080E2CF910C9448008093DE
:1000E000BB008091BC008F7D8093BC008091BC00E0
:1000F00087FFFCCF089580914601846A8093BC00FD
:100100008091BC0087FFFCCF08950F931F93CF937E
:10011000DF93082F162FEA010E947B009091B9000F
:10012000987F983009F059C08EEE0E946F00909130
:10013000B900987F983109F050C0802F0E946F005D
:100140009091B900987F983209F047C00E947B00D7
:100150009091B900987F903109F03FC08FEE0E94D6
:100160006F009091B900987F9034B9F580E00E94BB
:100170006F008091BC0087FFFCCF8091BB0018828C
:1001800089839091B900987F903539F59091BC00A2
:100190009F7B9093BC00812F0E946F008091BC00D8
:1001A00087FFFCCF2091BB0088819981822B9983A6
:1001B00088839091B900987F21E0983509F420E078
:1001C00084E98093BC003091BC00832F807134FDA2
:1001D000FACF222321F0892F02C021E0F1CFDF9155
:1001E000CF911F910F910895CF93C82F0E947B004C
:1001F0009091B900987F983011F0903141F58EEED2
:100200000E946F009091B900987F983101F584EFBA
:100210000E946F009091B900987F9832C1F48C2FA2
:100220000E946F009091B900987F21E0983269F0A8
:1002300084E98093BC003091BC00832F807134FD31
:10024000FACF222331F0892F04C020E0F1CF21E042
:10025000EFCFCF9108951F920F920FB60F921124F6
:100260000F900FBE0F901F9018951F920F920FB610
:100270000F9211248F939F9395B180E2892785B9BE
:100280009F918F910F900FBE0F901F901895CF9355
:10029000DF9300D000D000D0CDB7DEB780E284B9C4
:1002A0001092C50087E68093C4008091C1008860E9
:1002B0008093C1001092800085E080938100B09A05
:1002C0008FEF9FEF909385008093840081E080936F
:1002D0006F0012E2C12E11E0D12EF601119211929F
:1002E00021E0E833F207D1F7B0E0EB2EB1E0FB2ECE
:1002F000F701ABE0B1E08AEA8D9391E0980F91931A
:100300008E5F803CC9F78FEF8093BB0084E48093BD
:1003100046018093BC008091B9008C7F8093B90026
:1003200086B1806388B988E48093B80078940BE044
:1003300011E0ABE0BA2EB00EF80181918F01F70108
:1003400061917F0170E0782BA6010E948500F2E0A8
:10035000CF0ED11CB012F0CF8EE20E94F4008111BA
:1003600067C08FE19EE40197F1F700C00000AE0185
:100370004F5F5F4F67EF76EF86EF0E948500811138
:1003800057C029813A81A90160E070E080912C0179
:1003900090912D019A01AB01281B390B410951099C
:1003A000A0912A01B0912B010E94C8036B017C012E
:1003B0005FE0F594E794D794C7945A95D1F760918C
:1003C000340170913501CB01770FAA0BBB0BBC0137
:1003D000CD01EBE0660F771F881F991FEA95D1F7D3
:1003E000209136013091370146015701820E931E4C
:1003F000A11CB11CA50194010E94A903D701C6014B
:10040000820F931FA41FB51F80933C0190933D0161
:10041000A0933E01B0933F010896A11DB11DF4E0E9
:10042000B595A79597958795FA95D1F79C0102C048
:1004300020E030E0309345012093440184E30E94A2
:10044000F40081112DC18FEF9CE70197F1F700C0F7
:100450000000AE014F5F5F4F67EF76EF86EF0E94BF
:10046000850081111DC180903C0190903D01A090BC
:100470003E01B0903F0190EA891A9FE0990AA108D5
:10048000B1088092380190923901A0923A01B0925D
:100490003B01A5019401C501B4010E9477032B0122
:1004A0003C01FCE07594679457944794FA95D1F712
:1004B000C0902201D09023010D2C000CEE08FF0803
:1004C000A2E0CC0CDD1CEE1CFF1CAA95D1F7A0917C
:1004D0003001B0913101A30192010E94D3039B012D
:1004E000AC01BBE05595479537952795BA95D1F75F
:1004F0002B833C834D835E83A0912401B091250121
:10050000A50194010E94D303DC01CB011BE0B5954A
:10051000A795979587951A95D1F72B813C814D81A9
:100520005E81820F931FA41FB51FC80ED91EEA1E3D
:10053000FB1E02E0F594E794D794C7940A95D1F78F
:10054000C0921E01D0921F01E0922001F092210181
:10055000A0912601B0912701A50194010E94D30327
:100560004B015C018DE0B594A794979487948A958C
:10057000D1F7A0912E01B0912F01A30192010E9409
:10058000D303BB2797FDB095AB2FB501A401480F4E
:10059000591F6A1F7B1F4E5F5F4F6F4F7F4F32E0C7
:1005A00075956795579547953A95D1F79A01AB019F
:1005B00030584F4F5F4FA0912801B09129010E9400
:1005C000C8034B015C014FE0B694A79497948794BD
:1005D0004A95D1F780921A0190921B01A0921C01BA
:1005E000B0921D01A0EBBCE3A70196010E94D603C7
:1005F00060517C43814F984B6093160170931701B3
:10060000809318019093190197FD0BC0660F771F17
:10061000881F991FA50194010E94870349015A016F
:100620000AC0A50194010E94870349015A01880C60
:10063000991CAA1CBB1C9927B7FC9A958B2D7A2D67
:10064000692D9B01AC010E9477039B01AC01AEEDCB
:10065000BBE00E94C8036C01FF24D7FCF094EF2C90
:10066000A3E4B3EEA50194010E94D603BB2797FD36
:10067000B095AB2FC80ED91EEA1EFB1E3FECC30E71
:100680003EE0D31EE11CF11C44E0F594E794D794BE
:10069000C7944A95D1F7C80CD91CEA1CFB1C03C0AF
:1006A000C12CD12C7601C0924001D0924101E09240
:1006B0004201F09243018F2D90E00E944F008E2D59
:1006C00090E00E944F008D2D90E00E944F008C2DF5
:1006D00090E00E944F008FEF90E00E944F0083B7A0
:1006E000816083BF889583B78E7F83BF35CEDB0162
:1006F0008F939F930E94C803BF91AF91A29F800DDB
:10070000911DA39F900DB29F900D11240895A1E219
:100710001A2EAA1BBB1BFD010DC0AA1FBB1FEE1F7B
:10072000FF1FA217B307E407F50720F0A21BB30BC6
:10073000E40BF50B661F771F881F991F1A9469F742
:1007400060957095809590959B01AC01BD01CF019E
:100750000895052E97FB1EF400940E94C00357FDD8
:1007600007D00E94870307FC03D04EF40C94C0030B
:1007700050954095309521953F4F4F4F5F4F0895CD
:1007800090958095709561957F4F8F4F9F4F0895FD
:100790000E94DB03A59F900DB49F900DA49F800D38
:1007A000911D11240895B7FF0C94C8030E94C8033B
:1007B000821B930B0895A29FB001B39FC001A39F1A
:1007C000700D811D1124911DB29F700D811D11248A
:0807D000911D0895F894FFCF7C
:040000030000028E69
:00000001FF
