:100000000C9434000C9446000C9446000C9446006A
:100010000C9446000C9446000C9446000C94460048
:100020000C9446000C9446000C9446000C94460038
:100030000C9446000C94FE000C9446000C94460070
:100040000C9446000C9446000C9446000C94460018
:100050000C9446000C9446000C9446000C94460008
:100060000C9446000C94460011241FBECFEFD8E03C
:10007000DEBFCDBF21E0A0E0B1E001C01D92AF32F4
:10008000B207E1F70E9410010C9479020C94F4007D
:100090009091C00095FFFCCF8093C6000895CF9348
:1000A000C82F80E30E94480088E70E9448008C2FF8
:1000B00082958F708A3010F490E301C097E3890F26
:1000C0000E944800CF70CA3010F480E301C087E37B
:1000D0008C0F0E94480080E2CF910C9448008093DE
:1000E000BB008091BC008F7D8093BC008091BC00E0
:1000F00087FFFCCF089580912E01846A8093BC0015
:100100008091BC0087FFFCCF08950F931F93CF937E
:10011000DF93082F162FEA010E947B009091B9000F
:10012000987F983009F059C08EEE0E946F00909130
:10013000B900987F983109F050C0802F0E946F005D
:100140009091B900987F983209F047C00E947B00D7
:100150009091B900987F903109F03FC08FEE0E94D6
:100160006F009091B900987F9034B9F580E00E94BB
:100170006F008091BC0087FFFCCF8091BB0018828C
:1001800089839091B900987F903539F59091BC00A2
:100190009F7B9093BC00812F0E946F008091BC00D8
:1001A00087FFFCCF2091BB0088819981822B9983A6
:1001B00088839091B900987F21E0983509F420E078
:1001C00084E98093BC003091BC00832F807134FDA2
:1001D000FACF222321F0892F02C021E0F1CFDF9155
:1001E000CF911F910F9108951F920F920FB60F920A
:1001F00011240F900FBE0F901F9018951F920F9211
:100200000FB60F9211248F939F9395B180E28927A7
:1002100085B99F918F910F900FBE0F901F901895E9
:10022000CF93DF9300D0CDB7DEB780E284B91092D0
:10023000C50087E68093C4008091C10088608093E8
:10024000C1001092800085E080938100B09A8FEF0A
:100250009FEF909385008093840081E080936F00EE
:1002600066E1C62E61E0D62EF6011192119281E070
:10027000EC32F807D1F750E0E52E51E0F52EF7010A
:10028000ABE0B1E08AEA8D9391E0980F91938E5F95
:10029000803CC9F78FEF8093BB0084E480932E01EC
:1002A0008093BC008091B9008C7F8093B90086B1A7
:1002B000806388B988E48093B80078940BE011E0FB
:1002C0004BE0B42EB00EF80181918F01F7016191DE
:1002D0007F0170E0782BA6010E948500F2E0CF0E2E
:1002E000D11CB012F0CF14E90E947B008091B900BC
:1002F000887F883011F0803189F48EEE0E946F0083
:100300008091B900887F883149F484EF0E946F00A2
:100310008091B900887F883209F484C091E01093FD
:10032000BC002091BC0024FDFCCF992311F0811169
:100330005FC08FE19EE40197F1F700C00000AE01BD
:100340004F5F5F4F67EF76EF86EF0E948500811168
:100350004FC029813A81A90160E070E080912001BD
:10036000909121019A01AB01281B390B41095109D8
:10037000A0911E01B0911F010E943D026B017C0102
:100380009FE0F594E794D794C7949A95D1F760913C
:10039000280170912901CB01770FAA0BBB0BBC017F
:1003A000CD012BE0660F771F881F991F2A95D1F783
:1003B00020912A0130912B0146015701820E931E94
:1003C000A11CB11CA50194010E941E02D701C60107
:1003D000820F931FA41FB51F0896A11DB11D34E005
:1003E000B595A795979587953A95D1F77C0102C069
:1003F000E12CF12CF0922D01E0922C018F2D992708
:100400000E944F00C70199270E944F008FEF90E094
:100410000E944F0083B7816083BF889583B78E7F2A
:1004200083BF62CF8EE20E946F008091B900887F07
:1004300091E0883209F073CF90E071CF052E97FBE1
:100440001EF400940E94350257FD07D00E94480216
:1004500007FC03D04EF40C9435025095409530952E
:1004600021953F4F4F4F5F4F089590958095709520
:1004700061957F4F8F4F9F4F08950E946A02A59FFD
:10048000900DB49F900DA49F800D911D112408958F
:10049000A1E21A2EAA1BBB1BFD010DC0AA1FBB1F88
:1004A000EE1FFF1FA217B307E407F50720F0A21BFA
:1004B000B30BE40BF50B661F771F881F991F1A9467
:1004C00069F760957095809590959B01AC01BD0191
:1004D000CF010895A29FB001B39FC001A39F700DEB
:1004E000811D1124911DB29F700D811D1124911D3C
:0604F0000895F894FFCF0F
:0400000300000220D7
:00000001FF
