:100000000C9434000C9446000C9446000C9446006A
:100010000C9446000C9446000C9446000C94460048
:100020000C9446000C9446000C9446000C94460038
:100030000C9446000C9411010C9446000C9446005C
:100040000C9446000C9446000C9446000C94460018
:100050000C9446000C9446000C9446000C94460008
:100060000C9446000C94460011241FBECFEFD8E03C
:10007000DEBFCDBF21E0A0E0B1E001C01D92AF32F4
:10008000B207E1F70E9423010C9464020C9407016B
:100090009091C00095FFFCCF8093C6000895CF9348
:1000A000C82F80E30E94480088E70E9448008C2FF8
:1000B00082958F708A3010F490E301C097E3890F26
:1000C0000E944800CF70CA3010F480E301C087E37B
:1000D0008C0F0E94480080E2CF910C9448008093DE
:1000E000BB008091BC008F7D8093BC008091BC00E0
:1000F00087FFFCCF089580912E01846A8093BC0015
:100100008091BC0087FFFCCF0895DF92EF92FF92B1
:100110000F931F93CF93DF93D82ED62F7A010E948F
:100120007B00C091B900C87FC83009F066C08EEE70
:100130000E946F00C091B900C87FC83109F05DC04E
:100140008D2D0E946F00C091B900C87FC83209F0A0
:1001500054C00E947B00C091B900C87FC03109F033
:100160004CC08FEE0E946F00C091B900C87FC034B0
:1001700009F043C080E00E946F008091BC0087FFBF
:10018000FCCF0091BB0010E0102F0027C091B900F8
:10019000C87FC03591F59091BC009F7B9093BC00C7
:1001A0008D2F0E946F008091BC0087FFFCCF809153
:1001B000BB00082BC091B900C87FD1E0C83509F455
:1001C000D0E0F7011183008380E090E00E944F00AF
:1001D000C80199270E944F008FEF90E00E944F00C6
:1001E00084E98093BC009091BC00892F807194FDBC
:1001F000FACFDD2321F08C2F02C0D1E0E2CFDF91D6
:10020000CF911F910F91FF90EF90DF9008951F9273
:100210000F920FB60F9211240F900FBE0F901F90E8
:1002200018951F920F920FB60F9211248F939F93E0
:1002300095B180E2892785B99F918F910F900FBE6C
:100240000F901F901895CF93DF9300D0CDB7DEB7F6
:1002500080E284B91092C50087E68093C400809143
:10026000C10088608093C1001092800085E0809377
:100270008100B09A8FEF9FEF909385008093840068
:1002800081E080936F0076E1A72E71E0B72EF50133
:100290001192119281E0EC32F807D1F760E0C62E9E
:1002A00061E0D62EF601ABE0B1E08AEA8D9391E0F1
:1002B000980F91938E5F803CC9F78FEF8093BB00BE
:1002C00084E480932E018093BC008091B9008C7FE0
:1002D0008093B90086B1806388B988E48093B800C0
:1002E00078944BE0E42E41E0F42E5BE0952E9E0CDA
:1002F000F70181917F01F60161916F0170E0782B28
:10030000A5010E948500F2E0AF0EB11C9E10F0CF57
:1003100034E9F32E0E947B008091B900887F8830F9
:1003200011F0803189F48EEE0E946F008091B90047
:10033000887F883149F484EF0E946F008091B90072
:10034000887F883209F464C091E0F092BC0020916B
:10035000BC0024FDFCCF992311F081114BC08FE12B
:100360009EE40197F1F700C00000AE014F5F5F4FC0
:1003700067EF76EF86EF0E94850081113BC0A09168
:100380001F01AA1FAA27AA1F29813A818091200153
:1003900090912101281B390BB0E00E9433024B01E0
:1003A0005C0180912801182F110F110F110F00E02F
:1003B000B80180E090E020912A0130912B012401C6
:1003C0003501420E531E611C711CA30192010E9453
:1003D0001402D501C401820F931FA41FB51F0896F4
:1003E000A11DB11D24E0B595A795979587952A95F0
:1003F000D1F702C080E090E090932D0180932C0112
:1004000083B7816083BF889583B78E7F83BF82CF98
:100410008EE20E946F008091B900887F91E088325F
:1004200009F093CF90E091CF052E97FB1EF4009436
:100430000E942B0257FD07D00E94420207FC03D006
:100440004EF40C942B0250954095309521953F4FDA
:100450004F4F5F4F089590958095709561957F4FB0
:100460008F4F9F4F0895A29FB001B39FC001A39FDC
:10047000700D811D1124911DB29F700D811D1124DD
:10048000911D0895A1E21A2EAA1BBB1BFD010DC0F0
:10049000AA1FBB1FEE1FFF1FA217B307E407F50734
:1004A00020F0A21BB30BE40BF50B661F771F881F10
:1004B000991F1A9469F760957095809590959B01A6
:0C04C000AC01BD01CF010895F894FFCFFE
:0400000300000246B1
:00000001FF
